:020000040800F2
:10000000D89F00205D020008792800086D260008AE
:10001000892700088F0A00085D4B000800000000D7
:100020000000000000000000000000009D0100082A
:10003000390B000800000000F9010008C52B00087A
:1000400077020008770200087702000877020008AC
:10005000770200087702000877020008770200089C
:10006000770200087702000877020008770200088C
:10007000770200087702000877020008770200087C
:10008000770200087702000877020008770200086C
:10009000770200087702000877020008770200085C
:1000A000770200087702000877020008770200084C
:1000B000912C0008770200087702000877020008F8
:1000C000770200087702000877020008770200082C
:1000D000770200080D300008770200087702000858
:1000E000770200087702000877020008770200080C
:1000F00077020008770200087702000877020008FC
:1001000077020008770200087702000877020008EB
:1001100077020008770200087702000877020008DB
:1001200077020008770200087702000877020008CB
:1001300077020008770200087702000877020008BB
:100140007702000877020008770200087D2800087F
:10015000770200087702000877020008770200089B
:10016000770200087702000877020008770200088B
:1001700077020008770200087702000800000000FC
:100180007702000877020008DFF80CD000F016FCB8
:10019000004800472D720008D89F00202C4B19689A
:1001A0000868B0E8F04F80F30988BFF36F8F4FF015
:1001B000000080F3118870470000000008480068C4
:1001C000006880F308884FF0000080F3148862B65E
:1001D00061B6BFF34F8FBFF36F8F00DF00BF00BF6B
:1001E00008ED00E0DFF80C00016841F470010160E7
:1001F000704700BF88ED00E0EFF30980BFF36F8F19
:10020000134B1A681EF0100F08BF20ED108A20E96A
:10021000F04F106009B44FF0500080F31188BFF325
:100220004F8FBFF36F8F08F0A7FD4FF0000080F3F2
:10023000118809BC19680868B0E8F04F1EF0100F6B
:1002400008BFB0EC108A80F30988BFF36F8F704746
:1002500020000020EFF3058070470000064880472B
:1002600006480047FEE7FEE7FEE7FEE7FEE7FEE79B
:10027000FEE7FEE7FEE7FEE7812C000889010008A3
:100280002DE9F05F0546002092469B4688460646CB
:10029000814640241BE0284641464746224600F05E
:1002A0002DFA53465A46C01A914110D311461846AA
:1002B000224600F014FA2D1A67EB01084F46224639
:1002C0000120002100F00BFA17EB00094E41201E1F
:1002D000A4F10104DFDC484631462A464346BDE826
:1002E000F09F40EA01039B0703D009E008C9121FF1
:1002F00008C0042AFAD203E011F8013B00F8013BE0
:10030000521EF9D27047D2B201E000F8012B491E0B
:10031000FBD270470022F6E710B513460A460446A2
:100320001946FFF7F0FF204610BD30B50446002007
:10033000034600E05B1C934203D2E05CCD5C401BB3
:10034000F8D030BD2DE9FE4F804681EA0300C00F92
:100350000C46009021F0004123F00045B8EB02006C
:10036000A94105D24046214690461C460B4602460E
:1003700023F00040104347D0270DC7F30A00C3F312
:100380000A510290401A019040286BDAC3F313001F
:1003900040F4801B0098924620B10023D2EB030A60
:1003A00063EB0B0B01985946C0F14002504600F038
:1003B00096F906460D4650465946019A00F0AEF9A8
:1003C00010EB08006141002487EA115284EAE773C8
:1003D0001A4340D0009A62B3019A012A4FEA0752A9
:1003E00015DC001B61EB02014FF0004202EA0752EC
:1003F000CDE90042001C41F5801132462B4600F049
:10040000E5F903B0BDE8F08F40462146F9E7001B4F
:1004100061EB0201001C41F5801300185B412018BC
:10042000A2F5001747EB030140EAD570B6196D41FC
:1004300011E06D084FEA360645EAC0754FEA0752EB
:10044000001B61EB0201001C41F5801149084FEAD5
:1004500030000019514132462B4603B0BDE8F04F41
:1004600000F0A5B90098012240000023D0EB020261
:1004700063EBE073009821464FEAE074B8EB0000AC
:1004800061EB0401E9E783F000435BE781F00041A1
:1004900058E72DE9FE4F81EA030404F0004421F0FF
:1004A000004100944FF0000B23F0004350EA010498
:1004B0005ED052EA03045BD0C3F30A54C1F30A5579
:1004C0002C44A4F2F3340194A0FB0254C1F31301B1
:1004D00041F48011C3F3130343F4801301FB02447E
:1004E00000FB034E840A970A44EA815447EA835783
:1004F000A4FB076802958D0A05FB07854FEA932C3C
:1005000004FB0C542705029D4FEA065847EA1637AC
:10051000B5EB08056EEB070C870E920E47EA8117C4
:1005200042EA8312A7FB0201B6EB0B0164EB000465
:100530002B0D43EA0C335E1844EB1C50DA4651464F
:10054000E7FB0201C5F313044FEA0B3343EA1453EC
:100550004FEA0432019C43EA0603A4F10C0402941E
:10056000009CCDE900B400F031F903B0BDE8F08F94
:1005700000200146F9E72DE9F04D81EA030404F07B
:10058000004B21F0004514464FF0000A23F00041D3
:1005900050EA050220D054EA01021DD0C5F30A57E3
:1005A0000246C5F31303C1F31300C1F30A5640F426
:1005B000801543F48013A7EB0608101BD64608F2FB
:1005C000FD3873EB050002D308F1010801E0921831
:1005D0005B41B8F1000F03DA00200146BDE8F08D61
:1005E00000204FF48011064684460EE0171B73EB83
:1005F000050705D3121B63EB050306434CEA010C08
:1006000049084FEA300092185B4150EA0107EDD1EA
:1006100052EA030012D082EA040083EA050108438B
:1006200005D0101BAB4106D20122002306E00022B8
:100630004FF0004302E06FF0010253101AEB060086
:100640004CEB085110EB0A0041EB0B01BDE8F04DFB
:1006500000F0ADB800F0004230F000400AD0C10D0B
:1006600001F56071C0F3160042EA0151C20840076B
:100670001143704700200146704701F0004330B439
:1006800021F0004150EA010206D00A0DA2F5607285
:10069000C1F31301002A02DC30BC00207047440F74
:1006A00044EAC104C100E01830BC00EBC25000F0C5
:1006B00047B830B50B46014600202022012409E04E
:1006C00021FA02F59D4205D303FA02F5491B04FA0B
:1006D00002F52844151EA2F10102F1DC30BD202AEA
:1006E00004DB203A00FA02F1002070479140C2F189
:1006F000200320FA03F3194390407047202A04DBBB
:10070000203A21FA02F00021704721FA02F3D0408A
:10071000C2F120029140084319467047202A06DBA7
:10072000CB17203A41FA02F043EAE07306E041FABF
:1007300002F3D040C2F120029140084319467047AD
:100740000029A8BF7047401C490008BF20F00100E5
:10075000704710B4B0FA80FC00FA0CF050EA0104C3
:1007600004BF10BC704749B1CCF1200421FA04F455
:1007700011FA0CF118BF012121430843A3EB0C012E
:10078000CB1D4FEA00614FEA102042BF002010BC91
:10079000704700EBC35010440029A4BF10BC704741
:1007A000401C490008BF20F0010010BC704710B584
:1007B000141E73F1000408DA401C41F10001921884
:1007C0005B411A4301D120F0010010BD2DE9F04D2D
:1007D00092469B4611B1B1FA81F202E0B0FA80F282
:1007E00020329046FFF77BFF04460F4640EA0A009E
:1007F00041EA0B0153465A46084313D0114653EAC7
:10080000010019D0C8F140025046FFF777FF0546B6
:100810000E46504659464246FFF761FF084305D051
:10082000012004E020463946BDE8F08D0020054354
:1008300046EAE0762C4337430A986305E40AA0EBC6
:1008400008000022FD0A44EA47540A3002D500207D
:100850000146E9E7010510196941DDE9084500197C
:100860006941BDE8F04DA2E770B521F000430343B4
:100870000CD0C1F30A550024D5EB040564EB040346
:10088000D617AD1AB34102DB0020014670BD201817
:1008900041EB025170BD2DE9F04D00231A461B1AA1
:1008A0008A4103DB00200146BDE8F08DC1F30A5206
:1008B000C1F3130141F480154FF0000BD10702D1B1
:1008C00000186D41521E0027044640F2FF113846C1
:1008D00001EB620A3E468046024600204FF480113A
:1008E000FFF70CFFC2197141BB1846EB0100B4EBD6
:1008F000030C75EB000C04D3E41A65EB00051746F6
:100900000E46241908F101006D4180463428E3DDCC
:10091000F91946EB0600091BA84103D24FF0FF323C
:10092000134601E0002213461BEB070046EB0A5179
:10093000BDE8F04DFFF73BBF0EB5C10F80EAE07098
:100940000844CA07002140F233438DE80E000A46EE
:100950000B46FFF73BFF03B000BDC1F30A52C1F3E2
:10096000130140F2FF3341F480119A4202DA002071
:100970000146704740F233439A42A2F2334202DC0E
:100980005242FFF7BBBEFFF7AABE000030B5041EFF
:1009900071F1000404DB4FF00044404264EB0101BC
:1009A000141E73F1000405DB1C464FF00043524255
:1009B00063EB0403994208BF904230BD064C074DDB
:1009C00006E0E06840F0010394E80700984710341F
:1009D000AC42F6D3FFF7DCFBC4A40008E4A4000893
:1009E0000EB540F2334102910021CDE900110A46D3
:1009F0000B46FFF7EBFE03B000BD70B5C1F30A5222
:100A000001F000450024C1F3130140F2FF3341F42B
:100A100080119A4201DA002070BD40F233439A42BD
:100A2000A2F2334203DC5242FFF768FE00E090403E
:100A30002C43F1D0404270BD70B58C1810F8015BAA
:100A400015F0070301D110F8013B2A1106D110F867
:100A5000012B03E010F8016B01F8016B5B1EF9D16B
:100A60002B0705D40023521E0DD401F8013BFAE7F1
:100A700010F8013BCB1A921C03E013F8015B01F85C
:100A8000015B521EF9D5A142D8D3002070BDFEE70C
:100A9000002070470020704710B500220449054827
:100AA00002F0A0FC0449034802F08FFC002010BDB6
:100AB0004C4E0020704100204C4600202DE9F041B2
:100AC00000230E4A0E4D0BE014885688641CC4F3B4
:100AD0000A04B44203D0C65C1788EE5514805B1C30
:100AE0000C689C42F0D80146064802F06EFC0548AE
:100AF00002F044FC0020BDE8F0810000D600002098
:100B00004C5600207041002000207047094A10B563
:100B1000D2F8BC22D2F814220AB1012010BD0A4634
:100B20000146044802F05EFCBDE81040014802F0B6
:100B3000D3BC000070410020704772B6FEE7000091
:100B40002DED028B84B008F023FC24490124002001
:100B50000870234D234E9FED248A0090019002904F
:100B6000039000222149286808F0D6FA012804D110
:100B7000B0EE480A1E4807F0F9FD00221D49306812
:100B800008F0CAFA012802D11B4807F001FFD4B1CE
:100B9000CCB11A48B0EE481A1749D0ED000A1848EF
:100BA00090ED000A124807F025FD164A002069461C
:100BB00002EB8003D3ED000A01EB8003401CC3ED80
:100BC000000A0428F4DB104800231A46694600682E
:100BD00008F0F2F9052008F045F8C2E7800100208E
:100BE00000000020080000200AD7A33BB88E002098
:100BF000A08E0020008F0020AC8E002068A200088C
:100C000064A20008908E0020040000202DE9F0412D
:100C10000446876D00F060F9064694F8350000251B
:100C2000022806D08020606584F834500120BDE899
:100C3000F0812068016821F0160101602068416997
:100C400021F080014161206C08B9A06C20B12068BE
:100C5000016821F0080101602068016821F00101AC
:100C600001600CE000F038F9801B052807D920202E
:100C70006065032084F8350084F83450D7E7206895
:100C80000068C007EED194F85C103F208840B8603F
:100C9000012084F8350084F834500020C7E790F82C
:100CA0003510022903D080214165012070470521BC
:100CB00080F835100068016821F001010160002012
:100CC0007047000070B5044600F006F90546601C48
:100CD00002D004480078044400F0FEF8401BA04213
:100CE000FAD370BD100000202DE9F84FDFF8BCA149
:100CF0000022012503264FF00F090AF1040BAAF187
:100D0000040E00BF0B6805FA02F42340A34270D121
:100D10000F7907F00307012F01D0022F16D1876842
:100D20004FEA420806FA08FC27EA0C07D1F80CC083
:100D30000CFA08FC4CEA070CC0F808C04768A74347
:100D40000C79C4F3001494403C4344600C79E443B0
:100D5000A4070AD0C4684FEA420C06FA0CF7BC4359
:100D60008F6807FA0CF72743C7600C7904F0030477
:100D7000022C12D1D40800EB840CDCF82040570779
:100D8000FF0E09FA07F824EA0804D1F8108008FADF
:100D900007F848EA0408CCF8208004684FEA420CBF
:100DA00006FA0CF7BC430F7907F0030707FA0CF7B4
:100DB000274307604C6814F4403F70D03C4C2768D0
:100DC00047F480472760246822F0030704F4804436
:100DD0000094384C07EB040CDCF8084897074FEAFE
:100DE000177809FA08F7BC43334FB84202D10027FD
:100DF00024E054E0314FB84201D101271EE0304FCA
:100E0000B84201D1022719E02E4FB84201D1032781
:100E100014E02D4FB84201D104270FE02B4FB84208
:100E200001D105270AE02A4FB84201D1062705E083
:100E3000284FB84201D1072700E0082707FA08F732
:100E40002743CCF80878DAF800405746D1F804C0B8
:100E50009C435FEACC2C00D51C433C60DBF800408F
:100E60005F46D1F804C09C435FEA8C2C00D51C433C
:100E70003C60DEF800407746D1F804C09C435FEA4E
:100E80008C3C00D51C433C60084F083F3C68D1F8BF
:100E900004C09C435FEACC3C00D51C433C60521C20
:100EA000102AFFF42FAFBDE8F88F0000083C014086
:100EB000443802400030014000000240000402407B
:100EC00000080240000C02400010024000140240E2
:100ED00000180240001C0240014880687047000072
:100EE0001000002002488168027811448160704738
:100EF000100000200B4810B5016841F4007101603A
:100F0000016841F480610160016841F48071016011
:100F1000032000F09FF80F2000F006F800F050F8D2
:100F2000002010BD003C024030B50546204887B087
:100F30000024016841F001010160006806A900F089
:100F40000100009001A800F04DFE0498B0B100F03F
:100F50006FFE400017494FF08042B0FBF1F1164898
:100F6000491E026040F2E732C0E90324C0E90114DF
:100F7000846101F065F8040003D015E000F058FE2C
:100F8000E8E70D4801F08AF804000DD11C2000F0BC
:100F900033F8102D07D2002229461C2000F03AF821
:100FA0000648056000E0012407B0204630BD00007F
:100FB0004038024040420F00380400201400002056
:100FC0000C4882B0016841F480410160006800F47F
:100FD000804000900748001F016841F08051016087
:100FE0000068002200F0805000900F21901E02B097
:100FF00000F010B844380240002809DB00F01F025E
:10100000012191404009800000F1E020C0F800116A
:1010100070470000F0B40E4B1B680C46C3F302236C
:10102000C3F10705042D00D90425191D072901D294
:10103000002300E0DB1E012606FA05F1491E2140CF
:1010400099409E40761E16403143F0BC03F0B0BD7F
:101050000CED00E0064900F0070208684FF6FF03B8
:10106000184040EA0220034A10430860704700001D
:101070000CED00E00000FA057047006841620020B6
:101080007047F0B50368586A39B19C6A4FF48276AC
:1010900000EB144400204D1E0AE040EA0240986232
:1010A0000FE006EB8007DF59401C04EB1744C0B289
:1010B000A842F6D344EA02404FF4807202EB810169
:1010C00058500020F0BDD0F8E00402F09EBC01EBC7
:1010D000C10200EB8202D0F8E004126A02F0EFBB1A
:1010E00001EBC10200EB8202D0F8E004D2F86022EA
:1010F00002F041BCD0F8E00402F089BC0A0601F01D
:101100000F0101EBC10100EB810101D5143101E0B8
:1011100001F51571006803F06FBB70B504460B064E
:1011200001F00F0000EBC00104EB81014FF0010260
:101130004FF0000502D54A75143103E081F855528D
:1011400001F51571087094F89404012808D084F80A
:101150009424206803F06AF884F89454002070BD49
:10116000022070BD70B5044601F00F002279904254
:1011700001D9012070BD0B0601F00F0101EBC10187
:1011800004EB81014FF001024FF0000502D54A75D2
:10119000143103E081F8555201F515718D70087016
:1011A00094F89404012808D084F89424206803F06B
:1011B000AFF984F89454002070BD022070BD01F096
:1011C0000F0101EBC10100EB8100D0F8680270470C
:1011D0002DE9F04104460F0601F00F0000EBC001BD
:1011E00004EB81014FF001064FF0000502D54E756A
:1011F000143103E081F8555201F51571C2F30A026A
:1012000008708A600B714A7802B14883022B00D1C2
:101210004D7194F89404012809D084F894642068EE
:1012200002F052FF284684F89454BDE8F081022071
:10123000FBE710B501F00F0404EBC40100EB8101E2
:10124000C1E998230023C1F8683281F8553281F84A
:101250005442837901F51571012B00D1CA6182795D
:10126000006803F0ADF9002010BD70B504460D46CE
:1012700001F00F002179884201D9012070BD2906B3
:101280004FF000064FF0010206D500EBC00104EB61
:1012900081014A75143107E005EBC50104EB8101BA
:1012A00081F8556201F515718A70087094F89404FC
:1012B000012807D084F89424206803F055F9280702
:1012C00002D007E0022070BDA17904F29C422068A0
:1012D00003F0F2F884F89464002070BD10B501F0BA
:1012E0000F0404EBC40100EB8101C1E908230023D2
:1012F0008B6201234B7501F8144F8379012B00D1C8
:10130000CA618279006803F05BF9002010BD00001B
:101310002DE9FC5F05680446284603F009FB002818
:101320007DD1206803F030FB002878D0D5F808087C
:10133000C0F30D20C4F8D404206803F025FB800717
:1013400004D52068416901F002014161206803F081
:101350001BFBC10604F29C40009034D520688169D3
:1013600021F0100181612F6A07F00F0000EBC0002F
:1013700004EB8006C7F3434006F51576022802D039
:10138000062811D01AE047F6F070074216D0C7F3CE
:101390000A1217462846F16803F0FAFAF068384452
:1013A000F0607069384408E008222846009903F08C
:1013B000EFFA7069C7F30A11084470612068816907
:1013C00041F010018161206803F0DEFA00034FF064
:1013D000080B4FF0000A4FF001097CD50026206869
:1013E00003F0B1FA074674E0F80770D0F1B2206854
:1013F00003F0C2FA8046C00707D005EB4611C1F8DA
:10140000089B3146204601F03FFA5FEA087024D578
:1014100005EB4611C1F808BB2068016C00E023E22F
:1014200000EB46100191D0F8082BFB4B994205D9EF
:10143000110403D54FF40041C0F8081B204600F00A
:10144000F6FAF5490198884207D9A079012804D114
:1014500020680121009A03F02FF85FEAC86004D5E4
:1014600005EB46111020C1F8080B5FEA88701DD506
:101470006869000605D5D5F8040840F48061C5F810
:10148000041806EBC60004EB800090F8571200F534
:101490001570012905D180F803A0F1B2204600F0B3
:1014A000E9F905EB46110220C1F8080B5FEA8860F4
:1014B00004D505EB46102021C0F8081B5FEA8840E0
:1014C00005D505EB46104FF40051C0F8081B7F0806
:1014D000761C002F88D1206803F056FA40036ED5A1
:1014E000206803F029FA0746002666E0F80762D074
:1014F000F1B2206803F02EFA8046C00723D006F030
:101500000F01D5F8342809FA01F18A43C5F83428C7
:1015100005EB4611C1F80899A07901280FD106EB17
:10152000C60004EB8000D0E907211144016236B9FE
:10153000606A20B920680121009A02F0BDFFF1B273
:101540002046FFF7C4FD5FEA087003D505EB46119E
:10155000C1F808B95FEAC86004D505EB4611102050
:10156000C1F808095FEA486004D505EB4610402140
:10157000C0F808195FEA887016D53146284603F08E
:10158000ACF906EBC60004EB8000C17D14300129E4
:1015900005D180F803A0F1B2204600F067F905EB11
:1015A00046110220C1F808095FEA086003D53146F8
:1015B000204601F0CFF97F08761C002F96D12068D5
:1015C00003F0E2F9002811DAD5F8040820F001014F
:1015D000C5F8041894F8CC0401282BD0204600F05C
:1015E0000BFA2068416901F000414161206803F075
:1015F000CBF900050BD5D5F80808C00702D0204666
:1016000000F03EFA2068416901F400614161206800
:1016100003F0BAF9C00467D5D5F8040820F001003A
:10162000C5F804081021206803F057F900214FF68F
:101630007F3220E084F8CCA400212046FFF71CFD77
:10164000CFE700BF05EB4110C0F80829D0F80039FA
:1016500023F40013C0F80039C0F8082BD0F8003B81
:1016600023F40013C0F8003BD0F8003B43F00063C4
:10167000C0F8003B491C20798842E3D8D5F81C0803
:1016800040F00111C5F81C18E07B002828460DD059
:10169000D0F8840840F00B01C5F88418D5F8440848
:1016A00040F00B012846C5F844180DE0D0F81408A6
:1016B00042F22B010843C5F81408D5F8100840F091
:1016C0000B012846C5F81018D0F8000820F4FE6178
:1016D000C5F80018A1792068009A02F0EDFE206894
:1016E000416901F480514161206803F04DF98004A3
:1016F00015D5206802F028FD206803F00CF9E07190
:1017000000F090FA0146E279206803F09FF9204644
:1017100000F05CF92068416901F4005141612068E2
:1017200003F032F9000707D5204600F069F9206878
:10173000416901F008014161206803F025F90006C4
:1017400016D5A86920F08001A96101260DE000BF2F
:1017500006EBC60004EB800090F85702012803D185
:10176000F1B22046FFF7CAFC761C2079B042EFD8D0
:10177000206803F009F9C0021FD501264F4614E086
:1017800005EB4610D0F8000906EBC60104EB810119
:101790000A7E012A08D1002806DACF75F0B240F09F
:1017A00080012046FFF7AAFC761C2079B042E7D8DA
:1017B0002068416901F480114161206803F0E4F878
:1017C000800234D501204A4629E000BF05EB4011D4
:1017D000D1F8001B00EBC00304EB830393F85862BD
:1017E000012E1BD1002919DA94F8D464C1F3004109
:1017F00006F001068E4211D183F85722A96941F003
:101800008003AB616969090608D4D5F8040840F47F
:101810000070C5F8040805E00A30544F401C2179D7
:101820008142D3D82068416901F4001141612068E8
:1018300003F0AAF8400007D52046FFF744FC2068D3
:10184000416901F080414161206803F09DF8400743
:101850000AD520684568680702D52046FFF74AFC8C
:101860002068416829434160BDE8FC9FD0F8E0044E
:1018700002F01FB9D0F8E00402F02FB9F8B5040067
:1018800005D094F895042668002510B106E00120E3
:10189000F8BD84F89454204600F056F8032084F8EC
:1018A0009504B6F1A04F00D1A571206802F0FEFDAD
:1018B000207C8DF8000094E80F0002F053FC022613
:1018C000B8BB0021206803F082F890BB00200127FC
:1018D0000DE000BF00EBC00104EB81014F750875FE
:1018E000C8850D76CD610D62401CC0B24D62217974
:1018F0008142EFD8002011E000EBC00104EB810130
:1019000081F8555281F8540281F85852C1F85C525E
:10191000C1F86052401CC0B2C1F8645221798142C2
:10192000EAD8207C8DF8000094E80F0002F000FD5A
:1019300010B184F89564AAE7657484F895742068FA
:1019400002F0E8FC0020F8BD10B586B00446142172
:101950006846FEF7DFFC2068B0F1A04F2FD1194890
:101960000021026842F001020260006800F00100FC
:1019700005904FF4C05000900220CDE901010320F2
:1019800003900A20049069460F48FFF7ADF90D480F
:10199000001D016841F0800101600A4814300168AF
:1019A00041F4804101600068002200F4804005900D
:1019B00005214320FFF72EFB4320FFF71DFB06B058
:1019C00010BD0000303802400000024070B50446EF
:1019D000C079012570B1022801D0FFF7AEF8294681
:1019E000D4F8E00402F0E8F8D4F8E004BDE8704070
:1019F00002F09CB80025F2E7D0F8E00402F0C5B888
:101A0000D0F8E00402F0CBB810B5044690F8940486
:101A100001280AD0012084F894046174206803F03E
:101A200004F8002084F8940410BD022010BDD0F802
:101A3000E02400F29C41104602F0CAB810B50446FA
:101A4000006894F89414012909D0012184F89414B1
:101A5000C168490609D5617B012902D005E0022051
:101A600010BD816B41F480318163206802F013FF67
:101A7000206802F041FC002084F8940410BD0000AE
:101A800010B50446D0F8E00402F0E4F82068D0F87D
:101A9000001E41F00101C0F8001EE07A002804D0C9
:101AA0000248016841F00601016010BD10ED00E040
:101AB0002DE9F0470E46050065D0DFF81481D8F80F
:101AC0000000F7B200F00700B04207D288F80070BB
:101AD000D8F8000000F00700B04254D128683D4C0F
:101AE000810712D5400703D5206840F4E0502060FC
:101AF0002878000703D5206840F460402060206803
:101B0000A96820F0F000084320602878C0072DD095
:101B1000304968680839012812D0022813D00328F8
:101B200011D00968890700292DDA216821F0030105
:101B300001432160FFF7D0F9814641F2883A0EE077
:101B400009688903EFE709688901ECE7FFF7C4F941
:101B5000A0EB0901514502D90320BDE8F0872068B8
:101B6000696800F00C00B0EB810FEFD1D8F80010DD
:101B7000404601F00701B14207D90770006800F044
:101B80000700B04201D00120E7E72878400705D5DB
:101B90002068E96820F4E0500843206028780007B6
:101BA00006D52068296920F4604040EAC100206021
:101BB00000F05EF82168084AC1F30311515CC84087
:101BC0000649086006480068FFF7AEF90020C4E740
:101BD000003C024008380240549600081C000020D7
:101BE000140000200F2202600C4A136803F0030364
:101BF0004360136803F0F0038360136803F4E05359
:101C0000C36012684FF4E05303EAD2020261044851
:101C1000006800F0070008607047000008380240C4
:101C2000003C024001480068704700001C00002092
:101C30000448054900680968044AC1F38221515CDF
:101C4000C84070471C000020083802406496000815
:101C50000448054900680968044AC1F34231515CEF
:101C6000C84070471C0000200838024064960008F5
:101C7000154810B5006810F00C02144813D041103C
:101C8000042A0FD0082A0ED10F4C241F2268236883
:101C900002F03F025B0207D52068C0F38810A0FB6A
:101CA000010106E0084610BD2168C1F38811A1FBBF
:101CB00000010023FEF7E4FA2168C1F30141491C49
:101CC0004900B0FBF1F010BD083802400024F400D8
:101CD0002DE9F84F04006ED02078DFF84C93C00750
:101CE000A9F104054AD009F104000168C1F381019A
:101CF000012908D00068C0F3810002280AD1D9F870
:101D00000000400206D52868800337D560680028A7
:101D1000E1D033E06068B0F5803F10D0B0F5A02F7F
:101D2000286810D020F480302860286820F48020B3
:101D300028606068A8B1FFF7CFF806460DE0286874
:101D400040F48030F4E740F480202860F7E700BFDB
:101D5000FFF7C2F8801B642873D828688003F7D582
:101D60000CE0FFF7B9F8064605E000BFFFF7B4F84E
:101D7000801B6428F0D828688003F7D42078DFF827
:101D8000AC8280074FF0000A3ED5A748001D0168CD
:101D900011F00C0F08D00068C0F3810002280BD1AD
:101DA000D9F80000400207D42868800716D5E068FB
:101DB000012800D112E033E1E068B8B10120C8F891
:101DC0000000FFF789F8064605E000BFFFF784F83A
:101DD000801B0228C0D828688007F7D528682169A9
:101DE00020F0F80040EAC10028600DE0C8F800A02B
:101DF000FFF772F8064604E0FFF76EF8801B022832
:101E00001FD828688007F7D42078000722D5864F8E
:101E100087486169703771B101210160FFF75CF893
:101E2000064604E0FFF758F8801B022809D83868F6
:101E30008007F7D50EE0C0F800A0FFF74DF8064682
:101E400005E082E0FFF748F8801B02287DD838685B
:101E50008007F7D42078400768D5DFF8CCB1002799
:101E60000BF13C0BDBF80000C0000BD4DBF80010DA
:101E700041F08051CBF80010DBF80000012700F0A2
:101E8000805000906B4E3068C00510D4306840F42C
:101E900080703060FFF720F8009005E0FFF71CF835
:101EA0000099401A022850D83068C005F6D55E4E19
:101EB000A0686C3601280FD00528306810D020F0BB
:101EC00001003060306820F004003060A068B8B1D4
:101ED000FFF702F800900FE0306840F00100F4E7EF
:101EE00040F004003060F7E7FEF7F6FF0099411A72
:101EF00041F28830814266D830688007F4D50EE020
:101F0000FEF7EAFF009007E0FEF7E6FF0099411AAE
:101F100041F28830814256D830688007F4D42FB11E
:101F2000DBF8001021F08051CBF80010A069C8B395
:101F30003D49091D0968C1F3810102294AD00228DF
:101F4000504607D0C8F8600000E03CE0FEF7C4FF50
:101F500004463BE04746C8F86000FEF7BDFF064672
:101F600005E000BFFEF7B8FF801B02282BD82868C9
:101F70008001F7D4D4E907010843A16A2E4A490831
:101F800002EB0141626A41EA8211084394F82C1085
:101F900040EA0161C9F8001001203866FEF79CFF95
:101FA000044606E03EE000BFFEF796FF001B022855
:101FB00009D828688001F7D534E000BFFEF78CFF10
:101FC000001B022802D90320BDE8F88F2868800191
:101FD000F4D427E00128F7D0D9F80000E26900F432
:101FE000800191421CD1226A00F03F01914217D139
:101FF00047F6C071626A0140B1EB821F10D1A26A3C
:102000004FF0FF3300F4403103EB5202B1EB024FCB
:1020100006D194F82C1000F07060B0EB016F01D085
:102020000120D1E70020CFE70438024000004742FA
:10203000800E4742007000400000FFFF704770476D
:1020400010B5040003D094F83D0010B107E0012062
:1020500010BD002084F83C00204600F01EF802204D
:1020600084F83D00211D206800F018FE012084F84E
:10207000460084F83E0084F83F0084F8400084F86D
:10208000410084F8420084F8430084F8440084F856
:10209000450084F83D00002010BD704790F83D10C9
:1020A000012901D001207047022180F83D1001680C
:1020B000CA6842F00102CA6000681149884214D01F
:1020C000B0F1804F11D00F4988420ED00E4988429E
:1020D0000BD00E49884208D00D49884205D00D49E1
:1020E000884202D00C49884204D1816801F007017E
:1020F000062903D0016841F001010160002070470A
:10210000000001400004004000080040000C0040B6
:1021100000040140004001400018004070472DE9D4
:10212000F04104460068C66805694FF00007A9073A
:1021300013D5B10711D5F91E016101202077206860
:1021400080698007204602D0FFF7E8FF04E000F036
:102150007EF8204600F07CF82777680716D57007D0
:1021600014D521686FF004000861022020772068F0
:10217000806910F4407F204602D0FFF7CFFF04E0D3
:1021800000F065F8204600F063F82777280715D59A
:10219000300713D521686FF008000861042020770C
:1021A0002068C0698007204602D0FFF7B7FF04E02F
:1021B00000F04DF8204600F04BF82777E80616D5DA
:1021C000F00614D521686FF0100008610820207710
:1021D0002068C06910F4407F204602D0FFF79EFFC0
:1021E00004E000F034F8204600F032F82777E807E2
:1021F00008D0F00706D021686FF001000861204682
:1022000000F027F8280608D5300606D521686FF0BB
:10221000800008612046FFF711FF680608D57006A8
:1022200006D521686FF040000861204600F018F8DC
:10223000A8060AD5B00608D521686FF0200008610D
:102240002046BDE8F041FFF7FABEBDE8F0817047D7
:1022500070470068B0F1804F01D1FEF743BE704770
:102260007047704770470000F8B501680446086879
:10227000CA684B6910F00F0F4FF0000559D003F0FA
:10228000010602F49077374365D0C10705D0D10528
:1022900003D5616C41F001016164410705D5D9079F
:1022A00003D0616C41F002016164810705D5D90753
:1022B00003D0616C41F004016164010707D502F0AD
:1022C0002001314303D0616C41F008016164616C0D
:1022D00000293AD0800604D5900602D5204600F0A9
:1022E00073FD20684069616CC0F38010090700D459
:1022F00060B3204600F041FD20684069400621D5CA
:102300002068143050E8001F21F0400140E800121E
:10231000002AF5D1E06BA8B172490165E06BFEF7C8
:10232000BEFC002811D0E06B016D01B0BDE8F040AB
:10233000084783060FD593060DD52046BDE8F84023
:1023400000F042BD2046FFF78DFFF8BD2046FFF7A5
:1023500089FF6564F8BD266B2023012E7ED1C60659
:102360007CD5D6067AD508684868009048694FF051
:10237000020640064DD5E26B106840684FF4807746
:102380000004000C3AD0A18D814237D9E085D06994
:10239000B8422DD020680C3050E8001F21F4807125
:1023A00040E80012002AF5D12068143050E8001FE0
:1023B00021F0010140E80012002AF5D12068143014
:1023C00050E8001F21F0400140E80012002AF5D13A
:1023D00084F84230256320680C3050E8001F21F05B
:1023E000100140E80012002AF5D1E06BFEF70EFC68
:1023F0006663A08DE18D401A81B206E0A18D814215
:10240000A8D1D069B842A5D166632046FFF729FF5D
:10241000F8BDA08DE18D401A81B2E08D0028F7D083
:102420000029F5D020680C3050E8002F22F490727B
:1024300040E80027002FF5D12068143050E8002F25
:1024400022F0010240E80027002FF5D184F8423045
:10245000256320680C3050E8002F00E006E022F0F1
:10246000100240E80023002BF3D1CDE705062BD561
:10247000150629D594F841002128C9D1A068B0F5E6
:10248000805F01D12069B0B1206A411C21622168BE
:1024900000784860E08C401E0004000CE084B7D156
:1024A0002068C16821F08001C1602068C16841F0E6
:1024B0004001C160F8BD206A0088C0F30800486090
:1024C000206A801C2062E5E74006F3D55006F1D56E
:1024D000CA68204622F04002CA6084F8413000F009
:1024E000C4F8F8BD6D2D000870B5040004D094F850
:1024F0004100002510B106E0012070BD84F8405075
:10250000204600F023F8242084F841002068C168A8
:1025100021F40051C160204600F0B8FC2068016938
:1025200021F4904101612068416921F02A01416153
:102530002068C16841F40051C1606564202084F8BE
:10254000410084F842006563002070BD10B586B07C
:10255000044614216846FDF7DDFE184920688842CC
:1025600029D117480021026842F010020260006879
:1025700000F01000059012481438026842F0010281
:102580000260006800F0010005904FF4C060009008
:102590000220CDE901010320039007200490694641
:1025A0000848FEF7A1FB002205212520FEF732FD99
:1025B0002520FEF721FD06B010BD000000100140EF
:1025C000443802400000024070472DE9F8430446B9
:1025D00090F84100984616460D46202802D0022069
:1025E000BDE8F88385B17EB100206064212084F8C5
:1025F0004100FEF771FCA6848146E684A06820278E
:10260000B0F5805F02D003E00120E9E7206910B156
:102610002E4600250EE000260CE08021204600F02A
:10262000BBFCA8B9C6B116F8010B21684860E08C64
:10263000401EE084E08C4B464FF00002CDF8008055
:102640000028EAD14FF04001204600F0A5FC40B13F
:1026500084F841700320C3E735F8020BC0F308008B
:10266000E3E784F841700020BAE77047FEE7000016
:10267000F0B500230A24302537261F4611E000BF9D
:10268000B4EB107F02D905EB107C01E006EB107C67
:1026900001F813C001EB430C00015B1C8CF80170C6
:1026A000DBB29342ECD3F0BD00B587B01C220649E3
:1026B0006846FDF716FE0021684605F0F1FA034969
:1026C000086007B000BD0000389600080C0000202C
:1026D000094808B5016841F080010160016801F016
:1026E00080010091016841F001010160006800F083
:1026F0000100009008BD0000303802400C4810B5C1
:102700000A4901604FF4E1314160002181600C22EF
:10271000C160C0E904128161C161FFF7E5FE0028D4
:1027200003D0BDE81040FEF708BA10BD001001400C
:10273000F003002010B500220F49104801F09AF86C
:1027400008B1FEF7FAF90E490C4801F0AFFA08B1EA
:10275000FEF7F3F90B49094800F02CFE08B1FEF72B
:10276000ECF9064801F026FB002803D0BDE8104034
:10277000FEF7E3B910BD0000880000207041002082
:1027800048010020DC000020FEE700003EB5264B9B
:10279000002403F1480248210520009406F094FB30
:1027A0002249234B086003F14802102105200094C0
:1027B00006F08AFB1F491E4B0860983303F148025C
:1027C00027210220009406F07FFB1B491B4A4FF48F
:1027D0000074086002F1FC0103208DE8070000236B
:1027E000224617A1194806F09AFD144A04205432D3
:1027F00002F6A8018DE807000202002314A1174881
:1028000006F08DFD0D4A1649A83202208DE807001A
:102810000023224613A1164806F081FDBDE83E4084
:10282000144800F0ABBD0000388B002000000020F1
:10283000E88C002004000020080000203C6A0020F2
:102840004344435F5265637600000000B92A0008E4
:10285000466C696768744374726C0000410B000831
:10286000388300204D6F746F7253656E64000000F2
:10287000012A000870410020FEE700000148FEF731
:1028800047BD00006C6000202DE9F04103680D4653
:1028900004461E6C03EB4511D1F8080B94F806E0D2
:1028A0004FF400474FF0200C04F29C42BEF1010FA0
:1028B00009D0DFF898E0764539D1020432D500BF5F
:1028C000C1F8087B3FE0224B5FEA007E04D59E42C0
:1028D00039D90004F4D436E05FEA806E02D5C1F83D
:1028E00008CB30E010F0280F2DD19E4201D9000412
:1028F000E6D405EBC50004EB8000D1F8101BD0F83E
:102900007432C1F31201591AC0F8681200F515703B
:10291000ADB903691BB1C2681144C1600FE0012168
:1029200020680AE080060AD5C1F808CB07E035B96F
:10293000D4F8640218B90021184601F0BDFDE9B2CF
:102940002046FEF7CDFB0020BDE8F0810A31544F50
:102950000A30544F2DE9F84F0E4601EBC60100EB4B
:10296000810481460568D4E909101434884202D9EB
:102970000120BDE8F88F081AA168814200D20846FC
:10298000C01C870805EB46181BE000BFA0EB010A3E
:10299000A068504500D282460AF10300870899F8E2
:1029A000060000901FFA8AF3F2B22846E16802F0AE
:1029B000C1F8E16801EB0A00E060616901EB0A001F
:1029C0006061D8F8180980B2B84205D3D4E904018F
:1029D000814201D20028D9D1D4E90401884208D823
:1029E00006F00F0101208840D5F834188143C5F85E
:1029F00034180020BDE70178407841EA0020704794
:102A0000DFF8AC90ADF53C7D4FF0FF3A0024524624
:102A1000A8A9D9F8000006F07FFB0128F7D1FEF73E
:102A20005BFA4FF47A7100FB01F54021ACA8FDF789
:102A300071FC9DEDA80A00208DEDAC0A9DEDA90A60
:102A40004FF001088DEDAD0A9DEDAA0A47468DEDC8
:102A5000AE0A9DEDAB0A03AE8DEDAF0ACDE94E0097
:102A6000CDE94C54ACA98DF8804150A84022FDF727
:102A700038FC51224CA906F10C00FDF732FC0598F8
:102A80003A46C0B200F5BA400590304651252E4670
:102A90002F278DE8E0004146064B04F0E7FB03A931
:102AA00062A804F04BFE014662A8FEF72FF8AEE7DD
:102AB0000400002050650020DFF8E880D0B0374FD8
:102AC000374E08F160094FF0000A0DF1100B3888FD
:102AD000318888425DD034483188425C3088401C5F
:102AE000C0F30A0030800DF5947C154601AB4446D6
:102AF00041464846CDF800C004F0A4FC02281CD092
:102B000003281AD00028E2D003986B21B1EB102FD4
:102B100024D126489DF807400546412C00D3412486
:102B20004121FDF7F7FB224659462846FDF7D9FB20
:102B300000231A461D491E4827E0A2785146521C20
:102B4000A270012284F800A04846E270FD2DBED19B
:102B50000222E270C17005F045F8B8E77121B1EBCF
:102B6000102FB4D113489DF807400546272C00D3F9
:102B700027242721FDF7CEFB224659462846FDF79C
:102B8000B0FB00230B490C481A46006806F014FA03
:102B90009DE7012005F078F899E70000D6000020B5
:102BA000D8000020506500204C560020B88E002030
:102BB00000000020008F002008000020012005F008
:102BC00063F8FBE710B5502080F31188BFF34F8FF7
:102BD000BFF36F8F06F0E2FB18B104494FF080504D
:102BE0000860002080F3118810BD000004ED00E0B3
:102BF00030B593B030216846FDF78CFB14210CA84A
:102C0000FDF788FB1C480025016841F080510160F8
:102C1000006800F0805011901848016841F480412C
:102C200001600068022400F48040119001200090AF
:102C3000000401908001CDE906400420089048205E
:102C4000CDE9090403200B906846FFF741F808B16D
:102C500072B6FEE70CA90F2081E831004FF48050D6
:102C6000CDE90F0502210CA8FEF722FF002801D0B4
:102C700072B6FEE713B030BD40380240007000402D
:102C80000248016841F470010160704788ED00E07E
:102C90000148FFF744BA000038040020F0B502688C
:102CA000274B284D284E294F294C4FF0804C9842F5
:102CB00009D0604507D0A84205D0B04203D0B84241
:102CC00001D0A04204D122F0700E4A6842EA0E02FE
:102CD00098421BD0604519D0A84217D0B04215D0F9
:102CE000B84213D0A04211D01A4DA8420ED01A4DAE
:102CF000A8420BD0194DA84208D0194DA84205D0C2
:102D0000184DA84202D0184DA84203D122F44075B4
:102D1000CA682A434D6922F080022A438D68C56241
:102D20000D688562984201D0A04201D10969016312
:102D3000016841F004010160012141610260F0BDC0
:102D4000000001400004004000080040000C00406A
:102D5000000401400040014000440140004801409F
:102D600000180040001C00400020004010B5806B9F
:102D70000021C185FFF776FA10BD01680C3151E8DA
:102D8000002F22F4907241E80023002BF5D1016856
:102D9000143151E8002F22F0010241E80023002BFA
:102DA000F5D1016B012909D101680C3151E8002FDF
:102DB00022F0100241E80023002BF5D1202180F8F9
:102DC000421000210163704708B590F84210222993
:102DD00001D0022008BD82684FF480539A4201D18D
:102DE000016921B1816A9A421BD04AB10AE00268A6
:102DF000816A5268C2F308020A80816A891C08E06D
:102E0000026972B10268526802F07F020A70816A38
:102E1000491C8162C18D491E0904090CC18503D07A
:102E20001BE002685268F1E70168CA6822F02002DC
:102E3000CA600168CA6822F48072CA6001684A697F
:102E400022F001024A61202180F8421000214163F2
:102E5000026B012A03D0FFF7B7FB002008BD016316
:102E600001680C3151E8002F22F0100241E80023E4
:102E7000002BF5D101680A68D20602D50A684968B4
:102E80000091818DFFF7EDF9E7E7000070B504468A
:102E900000680169E26821F4405111430161216930
:102EA000A068E26908436169114308432168CA6860
:102EB00049F20C639A430243CA6020684169A269DF
:102EC00021F440711143416131492068884202D0A8
:102ED0003049884202D1FEF7BBFE01E0FEF7A8FEB2
:102EE000E2690023192164253226B2F5004F626899
:102EF00028D0A0FB0101930F9200FDF7C1F9014614
:102F0000B0FBF5F06FF01802504301EB800006EBC8
:102F10000010B0FBF5F000F0F002B1FBF5F002EBB1
:102F20000012B1FBF5F06FF01803584301EB80007D
:102F300006EB0010B0FBF5F000F00F002168104424
:102F4000886070BDA0FB010192185B41FDF798F904
:102F50000146B0FBF5F00201B1FBF5F06FF018038C
:102F6000584301EB800006EBC000B0FBF5F000F029
:102F7000F80002EB4002B1FBF5F0584301EB800092
:102F800006EBC000B0FBF5F000F00700D6E700004C
:102F900000100140001401402DE9F84398461746FF
:102FA0000D460446089E24E0701C22D0FDF794FFD5
:102FB000A0EB0800B0421AD8CEB12068C16849071A
:102FC00017D5802D15D0402D13D00168C9430907AE
:102FD0000FD401680025406800902046FFF7CDFE21
:102FE0000820606484F840500120BDE8F883032085
:102FF000FBE72068006835EA000004D00020B842F2
:10300000D2D00020F1E70120F9E700000148FFF7E6
:103010002BB90000F00300202DE9F0410C46D0F858
:10302000D412D0F8C82200EB8101D1F8C01229B324
:1030300004F00F0606EB860300EB830500276B699F
:103040004BB106EBC60602EB8602D269B3FBF2F681
:1030500002FB1632A2B1C1F81472D0F8D42200EBF0
:103060008200D0F8C40203692BB1D1F808022246CD
:1030700001F5047198470020BDE8F0810320FBE7CB
:1030800000231A4621466F6100F0F1FDF3E770B5A9
:103090000546D0F8D40205EB8000D0F8C04294B1C8
:1030A000284600F0C3FCC4F80C02D5F8D412D4F8BA
:1030B000040205EB8101D1F8C412CA6804F503715A
:1030C0009047002070BD032070BD000070B5234DF7
:1030D0000446297800F0EAFB2878002600F00F006B
:1030E00000EB800004EB800080F8236069782046C4
:1030F00000F0DCFB687800F00F0000EB800004EBD0
:10310000800080F86361A978204600F0CFFBA878A2
:1031100000F00F0000EB800004EB800080F82360DB
:10312000C661D4F8D40204EB8000D0F8C01299B183
:10313000D0F8C40240688047D4F8D40204EB800081
:10314000D0F8C00200F0BAFFD4F8D40204EB80003B
:10315000C0F8C062C4F8BC62002070BDF40000205A
:1031600010B5D0F8D41200EB8100D0F8C04284B181
:10317000D0F8C41259B194F80002FF2807D08B6828
:1031800094F8012221469847FF2084F8000200208D
:1031900010BD032010BD00000A21018000487047C7
:1031A000F800002070B5064682210C4800F001FBB3
:1031B00005460121094800F0FCFA04468121074830
:1031C00000F0F7FA0DB11021A971402104B1A180DE
:1031D00000B1818043203080004870BD0401002090
:1031E00070B5064682210D4800F0E3FA054601213C
:1031F0000A4800F0DEFA04468121084800F0D9FAB6
:103200000DB11021A9714FF4007104B1A18000B17A
:10321000818043203080014870BD000004010020FF
:1032200070B5064682210C4800F0C3FA054601211C
:10323000094800F0BEFA04468121074800F0B9FAB7
:103240000DB11021A971402104B1A18000B181808C
:1032500043203080004870BD040100202DE9F04774
:1032600004464FF40775284600F02AFF06004FF089
:10327000000865D02946FDF74DF8D4F8D4023E4D3C
:1032800004EB80004FF01009C0F8C062C4F8BC62C3
:10329000207C4FF4007A0127E8B3402302222978EA
:1032A000204600F02EFC2878402300F00F0000EBB1
:1032B000800004EB800080F82370022269782046A9
:1032C00000F01FFC6878082300F00F0000EB80007E
:1032D00004EB8000032280F86371A978204601F096
:1032E0000F0101EB810104EB8101C1F81C90A97869
:1032F00000F007FCA87800F00F0000EB800004EB62
:10330000800080F82370C6F80482D4F8D4024746BF
:1033100004EB800000E01BE0D0F8C40206F5017663
:10332000006880473761776132687AB1207C00B3EA
:1033300040236978204600F0F0FB0020BDE8F087CC
:10334000D4F8D41204EB8101C1F8C0820220F5E761
:10335000534602222978204600F0D3FB28785346B2
:1033600000F00F0000EB800004EB800080F8237079
:10337000A3E75346DDE70000F400002010B5D0F8C5
:10338000D41200EB8101D1F8C01259B1027C084C73
:10339000002AD1F8042207D04023617800F0BDFB59
:1033A000002010BD032010BD4FF40073F5E70000AE
:1033B000F400002039B1D0F8D42200EB8200C0F82C
:1033C000C4120020704703207047D0F8D42200EBCD
:1033D0008200D0F8C00218B1C0F804120020704773
:1033E00003207047D0F8D43200EB8300D0F8C0023D
:1033F00028B1C0F81022C0F808120020704703203E
:1034000070472DE9FC410646D0F8D4020C4606EB85
:1034100080000021D0F8C0728DF80010ADF80410C3
:103420000D4637B1217811F060022FD0202A4BD100
:1034300002E00320BDE8FC81E288F2B109060DD567
:10344000D0F8C40263783946D0F808C01846E0477F
:10345000E288072A00D9072239462DE0607887F8EC
:103460000002E088402800D34020C2B287F8012241
:103470003946304600F081F82BE0D0F8C40263787A
:103480000022866821461846B04722E0607830B1B5
:1034900001281ED00A2809D00B2815D110E096F873
:1034A0009C02032810D1022201A905E096F89C0293
:1034B000032809D101226946304600F07AF808E075
:1034C00096F89C02032804D02146304600F04AF8C2
:1034D00003252846AEE7000010B5D0F8D41200EB63
:1034E0008101D1F8C02201211AB1D2F8143213B1EE
:1034F00016E0032010BD0121C2F814120949D2F8C8
:103500001032097801F00F0404EB840400EB84040A
:103510006361D2F81032D2F8082200F0A8FB002133
:10352000084610BDF400002010B5D0F8B8220024E1
:103530005268904700B10324204610BD0020704718
:1035400000207047134610B50A46002100F0E5FA46
:10355000002010BD134610B50A46002100F087FB7D
:10356000002010BD10B50446802100F061FB20460C
:10357000BDE81040002100F05BBB10B50323C0F88C
:103580009432C0F85421C0F858211346C0F8641191
:103590000A46002100F0C1FA002010BD10B5052137
:1035A000C0F8941200231A46194600F0B6FA00201B
:1035B00010BD10B50223C0F89432426182611346F7
:1035C00041620A46002100F052FB002010BD10B5F8
:1035D0000421C0F8941200231A46194600F047FB54
:1035E000002010BD10B50A46024903A000F00FF9F3
:1035F000004810BD4C44002043444320436F6E6696
:10360000696700001220088000487047A800002069
:1036100010B50A46024903A000F0F9F8004810BDB1
:103620004C44002043444320496E746572666163D4
:10363000650000000420088000487047A4000020B6
:1036400010B50A46024903A000F0E1F8004810BD99
:103650004C44002053544D6963726F656C6563740C
:10366000726F6E696373000010B50A46024903A0C9
:1036700000F0CDF8004810BD4C44002053544D33A9
:1036800032205669727475616C20436F6D506F7291
:103690007400000010B51A2008800A480168001D57
:1036A0000468001D0068081809D008220649FEF7C2
:1036B000DFFF0549042210312046FEF7D9FF0248FA
:1036C000801E10BD107AFF1FBE000020F8B5044612
:1036D0000020ADF8000048880D46010A08295FD295
:1036E000DFE801F05E0409175E5E3C45D4F8B412D1
:1036F000207C0A6819E0207C02260028D4F8B80251
:1037000005D0C16A684688470146467039E0816A3B
:10371000F8E7C0B2062843D2DFE800F0030A10142D
:10372000181CD4F8B402426805E0694690471CE0D2
:10373000D4F8B402826892B3207CF6E7D4F8B402DD
:10374000C268F8E7D4F8B4020269F4E7D4F8B40226
:103750004269F0E7D4F8B4028269ECE7207CF0B962
:10376000D4F8B802416B68468847014609E0207CDE
:10377000A8B9D4F8B802016B68468847014607200B
:103780004870EA888AB1BDF8000040B1824200D991
:103790000246ADF800202046FFF70BFFF8BDFFE71B
:1037A00029462046FFF7DEFEF8E72046FFF70FFF29
:1037B000F4E778B50E4642880178002504468A422F
:1037C00012D9ADF800100AE0694600F019F8417806
:1037D000052904D181780546B14205D000256188CC
:1037E000BDF800209142EFD8284678BD0146002060
:1037F00002E0401CC0B2491C0A78002AF9D1704787
:103800000A8803781A440A8001780844704770B522
:1038100016460D46002820D00446FFF7E7FF022198
:1038200001EB40014FF40070814204D82046FFF7BD
:10383000DDFF4000801C30803078287003206870E5
:103840000220002206E02954401CC0B22A54401C29
:10385000C0B2641C21780029F5D170BD01004FF081
:10386000000004D0012901D0022901D003207047B3
:103870000120704778B10023C0F8B832C0F8C432D4
:10388000C0F8D03209B1C0F8B412012180F89C12FE
:10389000027000F0CFB80320704710B5D0F8C8020E
:1038A000FDF760FCBDE81040FFF7D8BF10B5D0F8B9
:1038B000C802FDF732FCBDE81040FFF7CFBF70B57E
:1038C0000446002521B194F89C02032846D050E01C
:1038D000D4F8941204F11400022939D18189426884
:1038E0008A420AD9511A41608289016911440161F1
:1038F00042682046FFF72EFE0FE0914214D1006887
:10390000884211D3D4F8981288420DD20022114671
:103910002046FFF71FFEC4F8985200231A461946A6
:10392000204600F0FAF813E094F89C02032808D12E
:10393000D4F8B802C16821B1C4F8D452C168204695
:1039400088478021204600F073F92046FFF726FEC5
:1039500094F8A00268B184F8A0520AE0D4F8B80242
:10396000426932B1C4F8D4524269204690470028D7
:1039700000D1002070BD10B50446002221B194F89A
:103980009C02032834D03EE0D4F8941204F5AA70C7
:10399000032938D1818943688B420ED9591A416075
:1039A000828901691144016142688089824200D89C
:1039B00002462046FFF7C6FD25E094F8AA0210F063
:1039C0001F0003D0012802D0022800D0002294F862
:1039D0009C02032808D1D4F8B802016921B1C4F8C7
:1039E000D4220169204688472046FFF7F0FD0AE00F
:1039F000D4F8B802836933B1C4F8D422826920466E
:103A00009047002800D1002010BD0020704710B55D
:103A10000024012180F89C12D0F8B82222B152680B
:103A20000179904700B10324204610BDD0F8C802A8
:103A3000FDF7C5BB10B5017839BB15490222C1F8A5
:103A4000E004C0F8C8124FF0A040086004200871DC
:103A5000CA71002088714A728872C87208738873AC
:103A6000C8730846FDF70AFF08B1FDF766F8802124
:103A70000748FDF702FB402200210548FDF701FB46
:103A8000802201210248FDF7FCFA002010BD000051
:103A90006C6000200A0601F07F01D0F8C80201EB3B
:103AA000C10100EB810001D5807D704790F856027E
:103AB000704710B5D0F8D42200EB8202D2F8B822B9
:103AC00022B190F89C32032B02D004E0032010BDF9
:103AD000126A02B19047002010BD10B5D0F8D42270
:103AE00000EB8202D2F8B82222B190F89C32032B6C
:103AF00002D004E0032010BD526A02B190470020BA
:103B000010BD10B51C461346D0F8C8022246FDF77A
:103B10005FFBBDE81040FFF7A1BE10B5D0F8C802AA
:103B2000FDF787FBBDE81040FFF798BE2DE9F04197
:103B300000260125044680F89C52C4F89462666011
:103B4000C4F8A46280F8A062D0F8B80230B142682C
:103B500022B100212046904700B1032600224023D5
:103B600011462046FFF7CDFF402784F86351A4F8A3
:103B700060713B46002280212046FFF7C2FF84F897
:103B8000235027843046BDE8F08190F89C12042928
:103B900003D190F89D1280F89C120020704710B558
:103BA00090F89C12032905D1D0F8B81211B1C96957
:103BB00001B18847002010BD01740020704710B586
:103BC000D0F8C802FDF720FFBDE81040FFF746BE61
:103BD00070B5044600F2AA20054600F051F8012015
:103BE000C4F89402B4F8B002C4F8980294F8AA0297
:103BF00010F01F010AD001290ED0022912D000F0C6
:103C000080012046BDE8704000F012B829462046E9
:103C1000BDE8704000F0D0B829462046BDE87040AD
:103C200000F013BA29462046BDE8704000F05AB9AA
:103C300010B5D0F8C802FDF718FBBDE81040FFF73B
:103C40000DBE10B5D0F8C802FDF7F8FEBDE8104073
:103C5000FFF704BE90F89C12042903D090F89C1240
:103C600080F89D12042180F89C120020704710B546
:103C7000D0F8C802FDF732FBBDE81040FFF7EEBDFB
:103C800070B5054611F8010B2870087868704C1C57
:103C90002046FEF7B0FE6880A41C2046FEF7ABFE6F
:103CA000A880A01CFEF7A7FEE88070BD38B50446CA
:103CB0000020ADF80000A1B1C4F8B812D4F8D402C5
:103CC00004EB8000D0F8B802C16A19B16846884791
:103CD000C4F8D002D4F8D802401CC4F8D80200209E
:103CE00038BD032038BD02460020D2F8B832002B80
:103CF00002D01B6810461847704700002DE9F041BC
:103D000088462B4E8978002504463170012906D952
:103D100041462046FFF726FC0320BDE8F08194F8D9
:103D20009C02022702280CD003281DD041462046C1
:103D3000FFF718FC31782046FFF7F6FB03252846ED
:103D4000EBE789B320466160FFF7CDFF050004D0A3
:103D500041462046FFF706FC1DE02046FFF737FCF2
:103D6000032084F89C02EAE7C1B1606888421BD056
:103D7000C1B22046FFF7D8FB317820466160FFF7DB
:103D8000B2FF050010D041462046FFF7EBFB21793A
:103D90002046FFF7C9FB84F89C72D0E784F89C7238
:103DA00020466160FFF7C0FB2046FFF710FCC6E726
:103DB000F0000020FFF745BF2DE9F0410A7800250B
:103DC00012F060020CD0202A01D0402A7DD1D0F818
:103DD000D42200EB8202D2F8B8229268904731E0F8
:103DE0004B78002201260A2B6FD2DFE803F04166F0
:103DF0006E586E08056E2D29FFF768FC67E00446D3
:103E00008888D8B9C888C8B94888802816D200F0F0
:103E10007F0794F89C02032810D084F89E723946DC
:103E20002046FFF7CCFE2046FFF7D1FB1FB1022052
:103E300084F89C024BE084F89C6248E0204644E011
:103E4000FFF75CFF054642E0CB88012B3DD190F89F
:103E50009C32012B04D0022B02D0032B35D104E07D
:103E60008260012200F1080116E00122011D13E029
:103E700090F89C22012A03D0022A01D0032A24D1DF
:103E8000CA88022A21D1C660D0F8A41209B1032140
:103E9000C160022200F10C01FFF78BFB17E04A889A
:103EA000012A02D0022A03D00FE0C0F8A46216E073
:103EB0008988090A80F8A01211E090F89C32012B41
:103EC00008D0022B06D0032B04D0FFF74BFB28466B
:103ED000BDE8F08149880129F9D1C0F8A422FFF793
:103EE00076FBF4E72DE9F041054608780C790E469B
:103EF0004FF0000810F060000BD0202801D04028BF
:103F00006BD121462846FFF719FBFF2800D0D8B314
:103F100098E07078C8B3012824D003285DD195F8C3
:103F20009C02022802D0032857D10CE0002C54D068
:103F3000802C52D021462846FFF77AFE8021284661
:103F4000FFF776FE7EE0708840B93CB1802C05D04A
:103F5000C88818B921462846FFF76AFE2846FFF7A9
:103F600036FB6FE095F89C020228DFD0032866D16B
:103F7000708888BB600603D021462846FFF78DFC79
:103F80002846FFF724FBBCE700E00AE0C5F8D402AE
:103F9000D5F8B8028268FAB1314628469047804683
:103FA00050E095F89C020027022802D0032846D151
:103FB00014E00CB1802C42D1200604F07F0000EB0D
:103FC000800005EB800101D5143101E001F5AA71F3
:103FD000022201F80E7F2EE034E030E0200604F0EB
:103FE0000F0000EB800005EB80000AD590F823005D
:103FF00028B304F07F0000EB800005EB8006143648
:104000000AE090F86301D0B104F07F0000EB80007B
:1040100005EB800606F5AA764CB1802C07D0214628
:104020002846FFF737FD10B10120B07300E0B773E9
:10403000022206F10E012846FFF7BBFA02E02846ED
:10404000FFF790FA4046BDE8F08170B50546087864
:1040500000240E4610F0600003D0202801D0402834
:1040600027D195F89C02012803D0022801D003280B
:104070001FD1B088C1B201291AD8C1B22846FFF7B2
:104080005FFAFF280CD058B9D5F8B8128A683AB14F
:10409000C5F8D4028A68314628469047044600E0B5
:1040A0000324F088204307D12846FFF790FA03E065
:1040B00031462846FFF756FA204670BD704700008B
:1040C000004870474C5E002070B50A78012302F06A
:1040D0000F054E78AB401B4CD0F81C58012E17D062
:1040E00045EA0343C0F81C3800EB4210D0F8002B1F
:1040F00012040BD4D0F8002B0B890979C3F30A03FF
:104100001A4344EA81410A43C0F8002B002070BDE5
:104110009BB21D43C0F81C5800EB4210D0F8003988
:104120001B04F3D4D0F800390D890979C5F30A05C9
:1041300089042B4341EA82510B432343C0F80039E1
:10414000E4E7000000800010D0F800196FF30A01C6
:10415000C0F80019D0F8041841F48071C0F80418B0
:104160000020704770B50D460446C2F3072104983D
:104170001E4601291BD0E06840F04000E060204668
:1041800000F032F8C6F307210029A16B26D021F4F4
:104190008031A163C5F30741012907D1A16841F02E
:1041A0000601A160A16841F02001A16070BDA16B72
:1041B00021F48031A163E1680A4A1140E160E168BD
:1041C00021F44011E160C0B2012803D1E06840F45D
:1041D0008010E060204600F007F8DBE741F4803112
:1041E000D7E70000BFFFBDFF08B5002100914FF0E9
:1041F0007061009A521C00928A4210D80269002A0B
:10420000F7DA0A220092521E0092FCD1026942F0B3
:1042100001020261009A521C00928A4201D90320D5
:1042200008BD0269D207F5D1002008BD30B54C7831
:104230000A78012300EB4212012C2CD0D2F8004B5B
:10424000002C0BDAD2F8004B44F00064C2F8004BAB
:10425000D2F8004B44F08044C2F8004BD0F83C58F0
:104260000C7804F00F0403FA04F425EA0444C0F8BF
:104270003C48D0F81C48097801F00F018B4024EA33
:104280000341C0F81C18D2F8000B19490840C2F8C5
:10429000000B002030BDD2F80049002C0BDAD2F818
:1042A000004944F00064C2F80049D2F8004944F0E3
:1042B0008044C2F80049D0F83C480D7805F00F055D
:1042C00003FA05F5ADB2AC43C0F83C48D0F81C4841
:1042D000097801F00F018B4099B28C43C0F81C485B
:1042E000D2F8000903490840C2F80009D1E70000EC
:1042F0000078F3EF007833ECD0F8001E21F00301D2
:10430000C0F8001ED0F8041821F00201C0F804180B
:1043100000207047D0F8001E21F00301C0F8001EF5
:10432000D0F8041841F00201C0F8041800207047CA
:104330002DE9F04F00250E4604461746284629462B
:1043400004EB8002C2F80411401C0F28F8D3C3F319
:1043500007405FEA0009204616D0806B20F4001267
:10436000A263A06B40F40022A2630846884621465F
:10437000C4F8000EC7F30720012817D00846D1F86B
:10438000001841F0030118E0D0F8040840F00202E0
:10439000C4F80428A06B40F40012A263A06B20F4C0
:1043A0000022A263A06B20F48022DDE7300E0846D5
:1043B000D1F8001801D041F00101C0F80018102117
:1043C00000F08BFA00B10125204600F06AFA00B136
:1043D00001254046C4F81088C4F81488C4F81C8825
:1043E00000214FF0006B4FF0904E4FF67F3AF2B243
:1043F00015E000BF04EB4113D3F800C9BCF1000F76
:1044000006DA11B1C3F800E904E0C4F800B901E02C
:10441000C3F80009C3F81009C3F808A9491C8A4267
:10442000E8D8002115E000BF04EB4113D3F800CB1E
:10443000BCF1000F06DA11B1C3F800EB04E0C4F8D8
:1044400000BB01E0C3F8000BC3F8100BC3F808ABC6
:10445000491C8A42E8D8D4F8101821F48072C4F8B4
:104460001028A0616FF080406061C6F3074018B962
:10447000A06940F01000A061A0690A490843A0614A
:10448000C7F3074018B1A06940F00800A061B9F176
:10449000010F03D1A06904490843A0612846BDE883
:1044A000F08F000000383C8004000040816821F05B
:1044B000010181600020704710B5036C134CA342CA
:1044C00003D9D0F8003B002B1EDB0023C0F8103BC3
:1044D000D0F8103B43F40023C0F8103BD0F8103B59
:1044E00043F01803C0F8103BD0F8103B43F0C04332
:1044F000C0F8103B012907D1C0F8142BD0F8001BDD
:1045000041F08021C0F8001B002010BD0A30544F3C
:104510004A780B78012A00EB43100BD0D0F8002B1F
:1045200022F40012C0F8002B0979032914D00229C3
:1045300012D017E0D0F8002922F40012C0F80029A8
:104540000979032901D002290CD1D0F8001941F0D2
:104550008051C0F8001905E0D0F8001B41F08051EF
:10456000C0F8001B002070470A784B78D1B200EBEE
:104570004110012B12D0D0F8001B002906DB2AB114
:10458000D0F8001B21F08041C0F8001BD0F8001BC0
:1045900041F40011C0F8001B00207047D0F800194A
:1045A000002906DB2AB1D0F8001921F08041C0F8BB
:1045B0000019D0F8001941F40011C0F80019EBE718
:1045C000F8B50C784F788B4DE3B26FF0604600EB96
:1045D0004313012F29D0D3F8107B6FF31207C3F8D0
:1045E000107BD3F8107B2F40C3F8107B002C7DD0BC
:1045F0000D69002D7BD08C6825446D1EB5FBF4F54C
:10460000ADB26C430C62D3F8104B06EAC5452C439F
:10461000C3F8104BD3F8104B0D6AC5F312052C43A9
:10462000C3F8104B012A70D0CBE00F69EFB1D3F87B
:1046300010796FF31207C3F81079D3F810792F406F
:10464000C3F810790CB30F698D682F447F1EB7FB38
:10465000F5F5D3F81079ADB206EAC5463743C3F88D
:1046600010790E79012E1CD02AE0D3F810692E4063
:10467000C3F81069D3F8105945F40025C3F8105950
:10468000D3F810596FF3120520E00E698D68AE4221
:1046900000D90D61D0F8105945F40026C0F8106912
:1046A0000EE0D3F8106926F0C046C3F81069D3F8BD
:1046B00010694FF0C04707EA45752E43C3F81069EB
:1046C000D3F810590E69C6F312063543C3F81059D2
:1046D000012A1BD000EB4413D3F8004944F00444F2
:1046E000C3F800490C79012C31D001E044E057E0D7
:1046F0000A695AB3D0F83428097801F00F03012170
:1047000099400A43C0F8342871E056E0CA691AB1EA
:1047100000EB4413C3F81429097901290ED1D0F80C
:104720000818C90500EB4411D1F8002902D442F061
:10473000005201E042F08052C1F8002900EB441021
:10474000D0F8001941F00441C0F800194FE0D0F84A
:104750000848E405D3F8004902D444F0005401E0CD
:1047600044F08054C3F8004900920A8A93B20A7850
:10477000C96800F0DFF93AE00C690CB18C680C6193
:104780008C680C62D0F8105BC4F312042543C0F8A7
:10479000105BD0F8104B44F40024C0F8104B41E7F4
:1047A000D3F8104B8D68C5F312052C43C3F8104B9A
:1047B000D3F8104B44F4002432E7CA680AB1C3F8B6
:1047C000142B097901290CD1D0F80808C005D3F8B9
:1047D000000B02D440F0005001E040F08050C3F8DC
:1047E000000BD3F8000B40F00440C3F8000B00208E
:1047F000F8BD0000FFFF07E038B500220092134625
:104800004D780A7842F2107400EB4212012D19D053
:10481000D2F8005B002D3CDAD2F8005B45F0006571
:10482000C2F8005B0A7800EB4212D2F8005B45F058
:104830008045C2F8005B009A521C0092A24221D926
:10484000012326E0D2F80059002D22DAD2F80059CF
:1048500045F00065C2F800590A7800EB4212D2F820
:10486000005945F08045C2F80059009A521C009248
:10487000A242E5D80A7800EB4212D2F80029002AB9
:10488000F3DB06E00A7800EB4212D2F8002B002A94
:10489000D1DB184638BD816841F0010181600020FC
:1048A000704708B500214FF070620091009B5B1CBF
:1048B000009393420AD80369002BF7DA0091102184
:1048C00001610099491C0091914201D9032008BD62
:1048D0000169C906F5D4002008BD18B500224FF0C3
:1048E00070630092009C641C00949C420CD8046984
:1048F000002CF7DA0092202242EA8111016100992E
:10490000491C0091994201D9032018BD016989060B
:10491000F5D4002018BDD0F8080810F0060004D027
:10492000022803D0062801D00F20704702207047CC
:10493000406900F001007047D0F81818D0F81C0842
:10494000084080B27047D0F81818D0F81C0808400A
:10495000000C704710B5D0F81038D0F8342801F0AA
:104960000F0400EB4110E24002F00102D0F8080908
:1049700043EAC212104010BD00EB4111D1F8081BF0
:10498000D0F81408084070474169806908407047B2
:1049900030B503460846940802F00301002203F5EF
:1049A000805303E01D6840F8045B521CA242F9D317
:1049B00000290BD01C680022D50024FA05F3491EFB
:1049C000521C090400F8013B090CF5D130BD70B54B
:1049D0000446C068002520F0C040E060012901D0F5
:1049E00079B120E0E06840F00050E0600A20FCF778
:1049F00069F960690A3510F0010F10D1C82DF5D39F
:104A00000DE0E06840F08040E0600A20FCF75AF9D1
:104A100060690A3510F0010F01D0C82DF5D3C82DFB
:104A200001D0002070BD012070BDD0F8002822F414
:104A3000FE62C0F80028D0F800284FF4FE6303EAB5
:104A400001110A43C0F8002800207047022A3ED115
:104A5000264A274B0A449A4201D20F2138E0254AC0
:104A6000254B0A449A4201D20E2131E0234A244BBD
:104A70000A449A4201D20D212AE0224A224B0A44DA
:104A80009A4201D20C2123E0204A214B0A449A4247
:104A900001D20B211CE01F4A1F4B0A449A4201D24B
:104AA0000A2115E01D4A1E4B0A449A420FD31D4AA3
:104AB0001D4B0A449A4201D2082109E01B4A1144C5
:104AC0001B4A914201D2072102E0062100E00921A0
:104AD000C26822F47052C260C2684FF4705303EA95
:104AE00081210A43C260002070470000405327FF25
:104AF00000350C00401E1BFF40420F0000DC0BFF86
:104B0000804F1200808CF9FE20D6130060B6E5FEBF
:104B100060E3160000D3CEFE40771B00C05BB3FEFF
:104B2000C091210000CA91FE20753800E05459FE62
:104B3000E09C410010B5029C74B9DB1C9C0800EBA2
:104B40000230002300F5805004E000BF51F8042B30
:104B500002605B1CA342F9D3002010BDFEE70000F9
:104B60000FB4054B10B503A9044A029801F0ECFEFE
:104B700010BC5DF814FB00001572000894010020C1
:104B800003B401984100009850EAC12018BF0420E6
:104B90004A0D18BF40F0010040F2FF72B2EB515FC6
:104BA00008BF40F00200012808BF052002B070478E
:104BB0000907090E002804DB00F1E02080F800144A
:104BC000704700F00F0000F1E02080F8141D7047DE
:104BD00070B59B482DED020B2DED068B079D25F042
:104BE0000044A04218DC9748844202DC0AD10698AF
:104BF00040B19DED060BBDEC068B02B0BDE87040E8
:104C000001F07ABD002DCCBF9FED8F0B9FED900B77
:104C1000BDEC068B02B070BD8F48A04215DD8F48F9
:104C2000A042D8BF4FF0FF3458DD9DED060B51EC8C
:104C3000100BFFF7A5FF042808BF01F091FD9DEDC3
:104C4000060BBDEC068B02B070BD9DED060B51EC62
:104C5000100B02F0D3FACDE9060181489FED828B5B
:104C6000A0423CDD8248A0421FDD00249FED82ABC4
:104C70009DED060B53EC1A2B51EC100BFBF762FB6E
:104C80009DED060B41EC190B53EC1A2B51EC100B5C
:104C9000FBF7FFFB53EC182BFBF7F5FB53EC192B41
:104CA000FBF769FCCDE9060149E09DED060B012407
:104CB00053EC182B51EC100BFBF744FB9DED060B4E
:104CC00041EC190B53EC182B51EC100BFBF7DBFBF1
:104CD00053EC192BFBF74FFCCDE906012FE0684898
:104CE000A0421FDD02249FED689B9DED060B53EC57
:104CF000192B51EC100BFBF7CCFB53EC182BFBF7EB
:104D000021FB9DED060B41EC180B53EC192B51ECDC
:104D1000100BFBF7B8FB53EC182BFBF72CFCCDE981
:104D200006010CE09DED060B032453EC102B9FEDC8
:104D3000580B51EC100BFBF71EFCCDE906019DED65
:104D4000060B53EC102B51EC100BFBF7A2FB41ECC4
:104D5000180B53EC182BFBF79CFB41EC190B4E483E
:104D60000621B0EE490AF0EE690A784401F098FB9A
:104D700053EC182B51EC100BFBF78BFB41EC180B91
:104D80004648B0EE490AF0EE690A0521784401F080
:104D900087FB53EC192B51EC100BFBF77AFB41EC22
:104DA000100B51EC180B53EC102B002C0EDAFBF708
:104DB000C9FA9DED061B53EC112BFBF76AFB9DED29
:104DC000061B53EC112BFBF761FB35E0FBF7BAFA3E
:104DD0009DED061B53EC112BFBF75BFB41EC100B1D
:104DE0002F48784400EBC40090ED001B51EC100BF1
:104DF00053EC112BFBF747FB9DED061B53EC112BDE
:104E0000FBF741FB41EC100B2648784400EBC40053
:104E100090ED001B51EC100B53EC112BFBF736FB04
:104E200041EC100B002DA2BFBDEC068B02B070BD93
:104E300051EC100B81F0004141EC100B01E7000038
:104E4000000010440000F07F182D4454FB21F93F6E
:104E5000182D4454FB21F9BF0000DC3F0000203E28
:104E60000000F33F00000000000000000000F03FE1
:104E70000000E63F000000000000000000000040CD
:104E80000080034000000000000000000000F83F28
:104E9000000000000000F0BFF2550000A85500001F
:104EA00032550000EA54000070B56B4E2DED040B36
:104EB0002DED028B82B0DDF81CC0DDE905235C42DC
:104EC0002CF000411C4341EAD474049D22F00040C0
:104ED000B44205D86C422C4340EAD474B4420BD996
:104EE0009DED061B9DED040B02B0BDEC028B04B0E2
:104EF000BDE8704001F00ABCACF14054A4F17F64FD
:104F00001C430BD0022404EAAC7444EAD274054377
:104F10009FED538B9FED542B07D015E09DED040BB7
:104F200051EC100B02F0A7F842E0002C11BF012C4D
:104F30009DED040B02B0BDEC028B04BF04B070BD4C
:104F4000022C38D0032C3BD00B439FED491B9FED27
:104F50004A0B0AD0B14218D1B04209D121F08041A8
:104F600020F08040079105900FE0002A15DA10E04C
:104F7000434B7B44002C08BF93ED000B0DD0012C5C
:104F800010D0022C17D0032C1AD0B0421DD1002A09
:104F900003DAB0EE410AF0EE610A02B0BDEC028B1A
:104FA00004B070BD93ED000B51EC100B81F000418B
:104FB00041EC100BF1E7B0EE480AF0EE680AECE7BE
:104FC000B0EE420AF0EE620AE7E7401A00153C280C
:104FD000C8BF8DED000B19DCBCF1000FBEBF10F196
:104FE0003C0F9FED290B8DED000B0FDB9DED060BAC
:104FF00053EC102B9DED040B51EC100BFBF7BBFA9F
:1050000002F0FCF802F037F8CDE90001002C08BFEF
:105010009DED000BC1D0012C10D0022C9FED1C0B7C
:1050200053EC102B9DED000B51EC100B0DD0FBF74A
:105030002AFA53EC182BFBF726FAB9E7019880F00F
:10504000004001909DED000BA7E7FBF71CFA53EC25
:10505000182BFBF71BFAABE70000F07F0000000005
:10506000182D4454FB210940182D4454FB2109C03C
:10507000182D4454FB21F9BF182D4454FB21F93F4E
:105080004A54000000000000000000000000000082
:10509000075C143326A6A13C10B52F499FED2C1BAD
:1050A0002DED020B84B0059820F000408842D8BF57
:1050B0009DED040B2DDD2949884209D1049840B9A2
:1050C0004FF0010001F06CFB01F02AFB06B010BDAF
:1050D00005DB9DED040B01F00FFB06B010BD68462B
:1050E0009DED040B00F008FF10F0030004BF9DEDE0
:1050F000021B9DED000B0CD001280ED09DED021B74
:105100009DED000B022817D0012001F045FA06B0F2
:1051100010BD01F00DF906B010BD9DED021B9DED17
:10512000000B012001F038FA51EC100B81F0004126
:1051300006B041EC100B10BD01F0FAF851EC100B69
:1051400081F0004106B041EC100B10BD00000000E2
:105150000000000000000000FB21E93F0000F07F9C
:105160002DE9F04D2DED040B2DED0E8B96B0DDE904
:105170002550279CDDF890A025F0004624F000483B
:10518000BAF1000F14BF0121002101EB4502FC49D7
:1051900053184A1093422AD3002814BF0123002336
:1051A00003EB44030B44F7498B4220D358EA000138
:1051B0009FEDF59B76D0DFF8D8B35D4503D1BAF10A
:1051C000000F05D188E0BAF1000F08BF002100D020
:1051D000012101EB450111F5001F08D8002814BF7B
:1051E0000121002101EB440111F5001F0BD99DEDB8
:1051F000261B9DED240B16B0BDEC0E8B04B0BDE854
:10520000F04D01F083BA0027002DBCBFE14988456D
:1052100021DAE1498845A8BF02271CDAC3451ADC18
:10522000DE4901EB2851142908DDC1F1340220FACE
:1052300002F101FA02F282420DD108E058B9C1F13F
:10524000140228FA02F101FA02F2424503D101F0F8
:105250000101C1F1020756EA0A0124D1002C22DA29
:10526000002D18BF022F01D0012F0AD0022001F01B
:1052700097FA16B0BDEC0E8B04B0BDE8F04D01F00E
:1052800023BA022001F08CFA01F01EFA51EC100B47
:1052900081F0004141EC100B16B0BDEC0E8B04B058
:1052A000BDE8F08D18E09FEDBEAB9FEDBF8B0028F1
:1052B00071D1B848804522D105F1804010F58010A9
:1052C00008BFBAF1000F07D0B3450ADC002CA8BF15
:1052D0009DED260BE0DA0DE0B0EE490AF0EE690A2A
:1052E000DAE7002C06DA9DED260B51EC100B81F06D
:1052F00000416FE0AE48784490ED000BCCE7D84514
:105300004DD1002C48DA2EB186423AD1BAF1000FC5
:1053100042D126E0BAF1000F13D0022001F040FA8A
:1053200001F00EFA8DED020B9DED240B8DED000BBF
:1053300010EE900A039961F31E0003909DED020B9D
:10534000AAE78DED02AB9DED240B1AEE901A10EE3C
:10535000900A8DED000B61F31E0003909DED020B92
:105360009AE78DED028B9DED240B18EE901A10EE4E
:10537000900A8DED000B61F31E0003909DED020B72
:105380008AE709DA9DED240B51EC190B53EC102B35
:10539000FBF7F1F81EE020E09DED240B7CE7864250
:1053A0001BDAB4F1804F0DD0A4F10050B0F1FF50E2
:1053B00013D1002D11DB9DED240B51EC100B03F0EC
:1053C00053FB07E09DED240B53EC102B51EC100B1D
:1053D00000F0C2BC41EC100B5EE79DED240B51ECDC
:1053E000100B01F00BFFBAF1000FCDE90E0142D115
:1053F0009FED710B46B3A6F1E040B0F17F600CD099
:105400005E4538D1002D00DAA7B3022F0CBF012072
:105410004FF0FF30FBF790FADCE7002D01DD002CA8
:105420000DDA002D01DD002C1FDB002D16DA002C1B
:1054300014DB012F08BF9FED620B3FF42DAFB0EEE0
:105440004A0AF0EE6A0A27E7022F18BF002D0CD097
:10545000012F0AD1002DFFF61FAF06E0002DB8BFC7
:10546000002C08DA012F3FF417AFB0EE480AF0EE37
:10547000680A11E71BE0012000EBE57050EA070124
:1054800015D0791EB0EE498AF0EE698A084308BF4C
:105490009FED4D8B4E480025804570DD4D494E48AF
:1054A000884514DDB0420DDB002C19DB2FE0012014
:1054B00001F076F916B0BDEC0E8B04B0BDE8F04DEE
:1054C00001F02EB9B34502DC002C09DC1FE0864256
:1054D00002DA002C1BDA03E05E452BDD002C16DD22
:1054E000022001F05DF901F02BF98DED020B53EC78
:1054F0001A2B51EC180BFAF7CCFFCDE900010399F8
:10550000019861F31E0003909DED020BC4E602209A
:1055100001F046F901F024F910EE901A18EE900A05
:105520008DED020B8DED008B61F31E0003909DED60
:10553000020BB1E69DED0E0B53EC192B51EC100B49
:10554000FAF7A1FF9FED260BCDE9080153EC102BD4
:105550009DED080B51EC100BFAF79BFF9FED221B02
:1055600053EC112BFAF792FF9DED081B53EC112B16
:10557000FAF78FFF9FED1E1B53EC112B3CE08CE0E4
:10558000FFFF1F00FFFF0F00000000000000F03FC2
:105590000000F03F0000F07F0000404301FCFFFFEF
:1055A000000000000000F07F00000000000000008C
:1055B000C650000000000000000000000000008055
:1055C000000000000000F0FF000000000000F0BF3D
:1055D0000000E0410000F043FFFFEF3F000000004B
:1055E000000000000000D03F555555555555D53F9A
:1055F000000000000000E03FFAF748FF9DED080BB7
:1056000041EC1A0B53EC102B51EC100BFAF741FF45
:1056100053EC1A2BFAF73DFF41EC1A0B9FEDFE0BF2
:1056200053EC102B9DED080B51EC100BFAF731FFEA
:1056300041EC1B0B9FEDFA0B51EC1A0B53EC102BAA
:10564000FAF727FF41EC1A0B9FEDF70B53EC102BE9
:105650009DED080B51EC100BFAF71BFF53EC1A2BC6
:10566000FAF711FF41EC1A0B51EC1B0B53EC1A2B00
:10567000FAF768FE0690CDE906519DED060B53EC56
:105680001B2B51EC100BFAF7FEFE53EC1A2BFAF71A
:10569000FDFE41EC100B00F0A1B90020B6F5801F13
:1056A0000EDA9FEDE30B53EC102B9DED0E0B51EC3E
:1056B000100BFAF7EEFECDE90E016FF034000E4646
:1056C00000EB2650A0F2FF37C6F31300DA4940F092
:1056D0007F6646F040568842D8BF002408DDD7498F
:1056E0008142C8BF012403DC0024A6F580167F1C7C
:1056F000D348784400EBC4000F9690ED00CB9DEDAD
:105700000E0B53EC1C2B51EC100BFAF7BCFE9DED6D
:105710000E0B41EC1B0B53EC1C2B51EC100BFAF74E
:1057200011FE41EC100B51EC190B53EC102BFAF756
:1057300022FF41EC1D0B51EC1B0B53EC1D2BFAF718
:10574000A8FE41EC1A0BBF488DED10AB78441095C4
:1057500090ED000B4FF0005040EA660000EB8440F3
:105760008DED080B00F5002009909DED080B53EC22
:105770001C2B51EC100BFAF786FE9DED0E1B53EC23
:10578000112BFAF783FE41EC100B53EC102B9DED1F
:10579000100B51EC100BFAF77CFE9DED080B41EC61
:1057A0001C0B53EC102B9DED100B51EC100BFAF76A
:1057B00070FE53EC1B2BFAF769FE53EC1C2BFAF727
:1057C00062FE53EC1D2BFAF764FE41EC1C0B53EC0C
:1057D0001A2B51EC1A0BFAF75CFE41EC1B0B9A48A2
:1057E0000621B0EE4B0AF0EE6B0A784400F058FE4A
:1057F000B0EE401AF0EE601AB0EE41DAF0EE61DA87
:1058000053EC1B2B51EC1B0BFAF743FE53EC1D2BF7
:10581000FAF73FFE9DED100B41EC1B0B53EC1A2BDE
:1058200051EC100BFAF78EFD53EC1C2BFAF731FEFE
:1058300053EC1B2BFAF786FD9DED100B41EC1B0B77
:1058400053EC102B51EC100BFAF723FE41EC1D0B1F
:105850009FED7FEB53EC1E2BFAF774FD53EC1B2BE3
:10586000FAF770FD0890CDE908519DED080B53EC57
:105870001E2B51EC100BFAF706FE53EC1D2BFAF71A
:1058800002FE53EC1B2BFAF701FE9DED080B41ECD9
:105890001D0B53EC102B9DED100B51EC100BFAF778
:1058A000F8FD41EC1B0B53EC1A2B51EC1D0BFAF7D6
:1058B000F0FD9DED080B41EC1A0B53EC102B51EC55
:1058C0001C0BFAF7E6FD53EC1A2BFAF73BFD41EC03
:1058D0001A0B51EC1B0B53EC1A2BFAF733FD0C90FF
:1058E000CDE90C519DED0C0B53EC1B2B51EC100B27
:1058F000FAF7C9FD53EC1A2BFAF7C8FD41EC1B0B64
:105900009FED550B53EC102B9DED0C0B51EC100B38
:10591000FAF7BFFD41EC1A0B9FED510B51EC1B0B3D
:1059200053EC102BFAF7B5FD41EC1B0B9FED4E0B22
:1059300053EC102B9DED0C0B51EC100BFAF7A9FD5D
:1059400053EC1B2BFAF7FEFC41EC100B4848784453
:1059500000EBC40090ED001B51EC100B53EC112B2D
:10596000FAF7F0FC41EC1B0B3846FAF7E5FFCDE9FE
:10597000080153EC1B2B51EC1A0BFAF7E3FC41EC3A
:10598000100B3C48784400EBC40090ED00CB51EC88
:10599000100B53EC1C2BFAF7D5FC9DED081B53ECB8
:1059A000112BFAF7CFFC0690CDE906519DED080BBF
:1059B00053EC102B9DED060B51EC100BFAF763FD29
:1059C00053EC1C2BFAF75FFD53EC1A2BFAF75BFD37
:1059D00053EC1B2BFAF75AFD41EC100B9DED261BE7
:1059E00053EC102B8DED001B00959DED260B51EC1B
:1059F000100BFAF74EFD9DED000B41EC1A0B53EC2A
:105A0000102B9DED260B51EC100BFAF73CFD9DED94
:105A1000061B53EC112B2FE0000000604715F73FE9
:105A2000FE822B654715F73F44DF5DF80BAE543E11
:105A300000000000000040438E9803007AB60B007F
:105A40007A4B0000704C0000B24A000000000000D9
:105A50000000000000000840000000E009C7EE3F21
:105A6000FD033ADC09C7EE3FF5015B14E02F3EBEB3
:105A70003E490000F8480000FAF70BFD53EC1A2BE2
:105A8000FAF760FC9DED060B41EC1A0B53EC102B62
:105A90009DED000B51EC100BFAF7FBFCCDE90C016E
:105AA0009DED0C0B51EC1A0B53EC102BFAF74AFC42
:105AB000CDE902010C46AA498C422FDB611A08434A
:105AC00018D19DED0C0B53EC102B9DED020B51ECFE
:105AD000100BFAF7D8FC41EC1B0B9FEDA30B51EC1C
